{
  "contractName": "Lyacon",
  "abi": [
    {
      "inputs": [],
      "stateMutability": "nonpayable",
      "type": "constructor"
    },
    {
      "anonymous": false,
      "inputs": [
        {
          "indexed": true,
          "internalType": "address",
          "name": "owner",
          "type": "address"
        },
        {
          "indexed": true,
          "internalType": "address",
          "name": "spender",
          "type": "address"
        },
        {
          "indexed": false,
          "internalType": "uint256",
          "name": "value",
          "type": "uint256"
        }
      ],
      "name": "Approval",
      "type": "event"
    },
    {
      "anonymous": false,
      "inputs": [
        {
          "indexed": true,
          "internalType": "address",
          "name": "previousOwner",
          "type": "address"
        },
        {
          "indexed": true,
          "internalType": "address",
          "name": "newOwner",
          "type": "address"
        }
      ],
      "name": "OwnershipTransferred",
      "type": "event"
    },
    {
      "anonymous": false,
      "inputs": [
        {
          "indexed": true,
          "internalType": "address",
          "name": "from",
          "type": "address"
        },
        {
          "indexed": true,
          "internalType": "address",
          "name": "to",
          "type": "address"
        },
        {
          "indexed": false,
          "internalType": "uint256",
          "name": "value",
          "type": "uint256"
        }
      ],
      "name": "Transfer",
      "type": "event"
    },
    {
      "inputs": [],
      "name": "CLAIM_END_TIME",
      "outputs": [
        {
          "internalType": "uint256",
          "name": "",
          "type": "uint256"
        }
      ],
      "stateMutability": "view",
      "type": "function"
    },
    {
      "inputs": [],
      "name": "EMISSIONS_RATE",
      "outputs": [
        {
          "internalType": "uint256",
          "name": "",
          "type": "uint256"
        }
      ],
      "stateMutability": "view",
      "type": "function"
    },
    {
      "inputs": [],
      "name": "MAX_WALLET_STAKED",
      "outputs": [
        {
          "internalType": "uint256",
          "name": "",
          "type": "uint256"
        }
      ],
      "stateMutability": "view",
      "type": "function"
    },
    {
      "inputs": [],
      "name": "TOTAL_BALANCE",
      "outputs": [
        {
          "internalType": "uint256",
          "name": "",
          "type": "uint256"
        }
      ],
      "stateMutability": "view",
      "type": "function"
    },
    {
      "inputs": [
        {
          "internalType": "address",
          "name": "owner",
          "type": "address"
        },
        {
          "internalType": "address",
          "name": "spender",
          "type": "address"
        }
      ],
      "name": "allowance",
      "outputs": [
        {
          "internalType": "uint256",
          "name": "",
          "type": "uint256"
        }
      ],
      "stateMutability": "view",
      "type": "function"
    },
    {
      "inputs": [
        {
          "internalType": "address",
          "name": "spender",
          "type": "address"
        },
        {
          "internalType": "uint256",
          "name": "amount",
          "type": "uint256"
        }
      ],
      "name": "approve",
      "outputs": [
        {
          "internalType": "bool",
          "name": "",
          "type": "bool"
        }
      ],
      "stateMutability": "nonpayable",
      "type": "function"
    },
    {
      "inputs": [
        {
          "internalType": "address",
          "name": "account",
          "type": "address"
        }
      ],
      "name": "balanceOf",
      "outputs": [
        {
          "internalType": "uint256",
          "name": "",
          "type": "uint256"
        }
      ],
      "stateMutability": "view",
      "type": "function"
    },
    {
      "inputs": [
        {
          "internalType": "uint256",
          "name": "amount",
          "type": "uint256"
        }
      ],
      "name": "burn",
      "outputs": [],
      "stateMutability": "nonpayable",
      "type": "function"
    },
    {
      "inputs": [
        {
          "internalType": "address",
          "name": "account",
          "type": "address"
        },
        {
          "internalType": "uint256",
          "name": "amount",
          "type": "uint256"
        }
      ],
      "name": "burnFrom",
      "outputs": [],
      "stateMutability": "nonpayable",
      "type": "function"
    },
    {
      "inputs": [],
      "name": "decimals",
      "outputs": [
        {
          "internalType": "uint8",
          "name": "",
          "type": "uint8"
        }
      ],
      "stateMutability": "view",
      "type": "function"
    },
    {
      "inputs": [
        {
          "internalType": "address",
          "name": "spender",
          "type": "address"
        },
        {
          "internalType": "uint256",
          "name": "subtractedValue",
          "type": "uint256"
        }
      ],
      "name": "decreaseAllowance",
      "outputs": [
        {
          "internalType": "bool",
          "name": "",
          "type": "bool"
        }
      ],
      "stateMutability": "nonpayable",
      "type": "function"
    },
    {
      "inputs": [
        {
          "internalType": "address",
          "name": "spender",
          "type": "address"
        },
        {
          "internalType": "uint256",
          "name": "addedValue",
          "type": "uint256"
        }
      ],
      "name": "increaseAllowance",
      "outputs": [
        {
          "internalType": "bool",
          "name": "",
          "type": "bool"
        }
      ],
      "stateMutability": "nonpayable",
      "type": "function"
    },
    {
      "inputs": [],
      "name": "name",
      "outputs": [
        {
          "internalType": "string",
          "name": "",
          "type": "string"
        }
      ],
      "stateMutability": "view",
      "type": "function"
    },
    {
      "inputs": [],
      "name": "owner",
      "outputs": [
        {
          "internalType": "address",
          "name": "",
          "type": "address"
        }
      ],
      "stateMutability": "view",
      "type": "function"
    },
    {
      "inputs": [],
      "name": "renounceOwnership",
      "outputs": [],
      "stateMutability": "nonpayable",
      "type": "function"
    },
    {
      "inputs": [],
      "name": "symbol",
      "outputs": [
        {
          "internalType": "string",
          "name": "",
          "type": "string"
        }
      ],
      "stateMutability": "view",
      "type": "function"
    },
    {
      "inputs": [],
      "name": "totalSupply",
      "outputs": [
        {
          "internalType": "uint256",
          "name": "",
          "type": "uint256"
        }
      ],
      "stateMutability": "view",
      "type": "function"
    },
    {
      "inputs": [
        {
          "internalType": "address",
          "name": "recipient",
          "type": "address"
        },
        {
          "internalType": "uint256",
          "name": "amount",
          "type": "uint256"
        }
      ],
      "name": "transfer",
      "outputs": [
        {
          "internalType": "bool",
          "name": "",
          "type": "bool"
        }
      ],
      "stateMutability": "nonpayable",
      "type": "function"
    },
    {
      "inputs": [
        {
          "internalType": "address",
          "name": "sender",
          "type": "address"
        },
        {
          "internalType": "address",
          "name": "recipient",
          "type": "address"
        },
        {
          "internalType": "uint256",
          "name": "amount",
          "type": "uint256"
        }
      ],
      "name": "transferFrom",
      "outputs": [
        {
          "internalType": "bool",
          "name": "",
          "type": "bool"
        }
      ],
      "stateMutability": "nonpayable",
      "type": "function"
    },
    {
      "inputs": [
        {
          "internalType": "address",
          "name": "newOwner",
          "type": "address"
        }
      ],
      "name": "transferOwnership",
      "outputs": [],
      "stateMutability": "nonpayable",
      "type": "function"
    },
    {
      "inputs": [],
      "name": "werewolvesAddress",
      "outputs": [
        {
          "internalType": "address",
          "name": "",
          "type": "address"
        }
      ],
      "stateMutability": "view",
      "type": "function"
    },
    {
      "inputs": [
        {
          "internalType": "address",
          "name": "_werewolvesAddress",
          "type": "address"
        }
      ],
      "name": "setWerewolvesAddress",
      "outputs": [],
      "stateMutability": "nonpayable",
      "type": "function"
    },
    {
      "inputs": [
        {
          "internalType": "address",
          "name": "staker",
          "type": "address"
        }
      ],
      "name": "getTokensStaked",
      "outputs": [
        {
          "internalType": "uint256[]",
          "name": "",
          "type": "uint256[]"
        }
      ],
      "stateMutability": "view",
      "type": "function"
    },
    {
      "inputs": [
        {
          "internalType": "uint256[]",
          "name": "tokenIds",
          "type": "uint256[]"
        }
      ],
      "name": "stakeByIds",
      "outputs": [],
      "stateMutability": "nonpayable",
      "type": "function"
    },
    {
      "inputs": [],
      "name": "unstakeAll",
      "outputs": [],
      "stateMutability": "nonpayable",
      "type": "function"
    },
    {
      "inputs": [
        {
          "internalType": "uint256[]",
          "name": "tokenIds",
          "type": "uint256[]"
        }
      ],
      "name": "unstakeByIds",
      "outputs": [],
      "stateMutability": "nonpayable",
      "type": "function"
    },
    {
      "inputs": [
        {
          "internalType": "uint256",
          "name": "tokenId",
          "type": "uint256"
        }
      ],
      "name": "claimByTokenId",
      "outputs": [],
      "stateMutability": "nonpayable",
      "type": "function"
    },
    {
      "inputs": [],
      "name": "claimAll",
      "outputs": [],
      "stateMutability": "nonpayable",
      "type": "function"
    },
    {
      "inputs": [
        {
          "internalType": "address",
          "name": "staker",
          "type": "address"
        }
      ],
      "name": "getAllRewards",
      "outputs": [
        {
          "internalType": "uint256",
          "name": "",
          "type": "uint256"
        }
      ],
      "stateMutability": "view",
      "type": "function"
    },
    {
      "inputs": [
        {
          "internalType": "uint256",
          "name": "tokenId",
          "type": "uint256"
        }
      ],
      "name": "getRewardsByTokenId",
      "outputs": [
        {
          "internalType": "uint256",
          "name": "",
          "type": "uint256"
        }
      ],
      "stateMutability": "view",
      "type": "function"
    },
    {
      "inputs": [
        {
          "internalType": "uint256",
          "name": "tokenId",
          "type": "uint256"
        }
      ],
      "name": "getStaker",
      "outputs": [
        {
          "internalType": "address",
          "name": "",
          "type": "address"
        }
      ],
      "stateMutability": "view",
      "type": "function"
    }
  ],
  "bytecode": "0x6080604052620186a0600255600a600655650a86cc54b9806007556363b175c06008556127106009556000600a60006101000a81548173ffffffffffffffffffffffffffffffffffffffff021916908373ffffffffffffffffffffffffffffffffffffffff1602179055503480156200007757600080fd5b506040518060400160405280600681526020017f4c5941434f4e00000000000000000000000000000000000000000000000000008152506040518060400160405280600681526020017f4c7961636f6e00000000000000000000000000000000000000000000000000008152508160039080519060200190620000fc9291906200020c565b508060049080519060200190620001159291906200020c565b505050620001386200012c6200013e60201b60201c565b6200014660201b60201c565b62000321565b600033905090565b6000600560009054906101000a900473ffffffffffffffffffffffffffffffffffffffff16905081600560006101000a81548173ffffffffffffffffffffffffffffffffffffffff021916908373ffffffffffffffffffffffffffffffffffffffff1602179055508173ffffffffffffffffffffffffffffffffffffffff168173ffffffffffffffffffffffffffffffffffffffff167f8be0079c531659141344cd1fd0a4f28419497f9722a3daafe3b4186f6b6457e060405160405180910390a35050565b8280546200021a90620002eb565b90600052602060002090601f0160209004810192826200023e57600085556200028a565b82601f106200025957805160ff19168380011785556200028a565b828001600101855582156200028a579182015b82811115620002895782518255916020019190600101906200026c565b5b5090506200029991906200029d565b5090565b5b80821115620002b85760008160009055506001016200029e565b5090565b7f4e487b7100000000000000000000000000000000000000000000000000000000600052602260045260246000fd5b600060028204905060018216806200030457607f821691505b602082108114156200031b576200031a620002bc565b5b50919050565b613c6780620003316000396000f3fe608060405234801561001057600080fd5b50600436106101e55760003560e01c806370a082311161010f578063b6a2411a116100a2578063d9ffad4711610071578063d9ffad4714610570578063dd62ed3e1461058c578063e3c998fe146105bc578063f2fde38b146105ec576101e5565b8063b6a2411a1461050e578063ba7e76621461052a578063cad69b1914610548578063d1058e5914610566576101e5565b80638da5cb5b116100de5780638da5cb5b1461047257806395d89b4114610490578063a457c2d7146104ae578063a9059cbb146104de576101e5565b806370a08231146103fe578063715018a61461042e57806379cc6790146104385780638ab8fab314610454576101e5565b8063362a3fad1161018757806348aa19361161015657806348aa193614610366578063515ec1051461038257806352eb7796146103b25780635e1f1e2a146103e2576101e5565b8063362a3fad146102cc57806339509351146102fc5780633f1d55db1461032c57806342966c681461034a576101e5565b80632209d38c116101c35780632209d38c1461025657806323b872dd14610274578063313ce567146102a457806335322f37146102c2576101e5565b806306fdde03146101ea578063095ea7b31461020857806318160ddd14610238575b600080fd5b6101f2610608565b6040516101ff91906129c6565b60405180910390f35b610222600480360381019061021d9190612a90565b61069a565b60405161022f9190612aeb565b60405180910390f35b6102406106b8565b60405161024d9190612b15565b60405180910390f35b61025e6106c2565b60405161026b9190612b15565b60405180910390f35b61028e60048036038101906102899190612b30565b6106c8565b60405161029b9190612aeb565b60405180910390f35b6102ac6107c0565b6040516102b99190612b9f565b60405180910390f35b6102ca6107c9565b005b6102e660048036038101906102e19190612bba565b610a78565b6040516102f39190612b15565b60405180910390f35b61031660048036038101906103119190612a90565b610b89565b6040516103239190612aeb565b60405180910390f35b610334610c35565b6040516103419190612b15565b60405180910390f35b610364600480360381019061035f9190612be7565b610c3b565b005b610380600480360381019061037b9190612d5c565b610c4f565b005b61039c60048036038101906103979190612be7565b610eeb565b6040516103a99190612b15565b60405180910390f35b6103cc60048036038101906103c79190612bba565b610fea565b6040516103d99190612e63565b60405180910390f35b6103fc60048036038101906103f79190612be7565b611081565b005b61041860048036038101906104139190612bba565b6111b6565b6040516104259190612b15565b60405180910390f35b6104366111fe565b005b610452600480360381019061044d9190612a90565b611286565b005b61045c611301565b6040516104699190612b15565b60405180910390f35b61047a611307565b6040516104879190612e94565b60405180910390f35b610498611331565b6040516104a591906129c6565b60405180910390f35b6104c860048036038101906104c39190612a90565b6113c3565b6040516104d59190612aeb565b60405180910390f35b6104f860048036038101906104f39190612a90565b6114ae565b6040516105059190612aeb565b60405180910390f35b61052860048036038101906105239190612bba565b6114cc565b005b61053261158c565b60405161053f9190612b15565b60405180910390f35b610550611592565b60405161055d9190612e94565b60405180910390f35b61056e6115b8565b005b61058a60048036038101906105859190612d5c565b6117fd565b005b6105a660048036038101906105a19190612eaf565b611c54565b6040516105b39190612b15565b60405180910390f35b6105d660048036038101906105d19190612be7565b611cdb565b6040516105e39190612e94565b60405180910390f35b61060660048036038101906106019190612bba565b611d18565b005b60606003805461061790612f1e565b80601f016020809104026020016040519081016040528092919081815260200182805461064390612f1e565b80156106905780601f1061066557610100808354040283529160200191610690565b820191906000526020600020905b81548152906001019060200180831161067357829003601f168201915b5050505050905090565b60006106ae6106a7611e10565b8484611e18565b6001905092915050565b6000600254905090565b60085481565b60006106d5848484611fe3565b6000600160008673ffffffffffffffffffffffffffffffffffffffff1673ffffffffffffffffffffffffffffffffffffffff1681526020019081526020016000206000610720611e10565b73ffffffffffffffffffffffffffffffffffffffff1673ffffffffffffffffffffffffffffffffffffffff168152602001908152602001600020549050828110156107a0576040517f08c379a000000000000000000000000000000000000000000000000000000000815260040161079790612fc2565b60405180910390fd5b6107b4856107ac611e10565b858403611e18565b60019150509392505050565b60006012905090565b6000600e60003373ffffffffffffffffffffffffffffffffffffffff1673ffffffffffffffffffffffffffffffffffffffff168152602001908152602001600020805490501161084e576040517f08c379a000000000000000000000000000000000000000000000000000000000815260040161084590613054565b60405180910390fd5b600080600e60003373ffffffffffffffffffffffffffffffffffffffff1673ffffffffffffffffffffffffffffffffffffffff1681526020019081526020016000208054905090505b6000811115610a6a576000600e60003373ffffffffffffffffffffffffffffffffffffffff1673ffffffffffffffffffffffffffffffffffffffff1681526020019081526020016000206001836108ee91906130a3565b815481106108ff576108fe6130d7565b5b90600052602060002001549050600b60009054906101000a900473ffffffffffffffffffffffffffffffffffffffff1673ffffffffffffffffffffffffffffffffffffffff166323b872dd3061dead846040518463ffffffff1660e01b815260040161096d93929190613106565b600060405180830381600087803b15801561098757600080fd5b505af115801561099b573d6000803e3d6000fd5b50505050600754600c600083815260200190815260200160002054426109c191906130a3565b6109cb919061313d565b836109d69190613197565b92506109e23382612264565b600a60009054906101000a900473ffffffffffffffffffffffffffffffffffffffff16600d600083815260200190815260200160002060006101000a81548173ffffffffffffffffffffffffffffffffffffffff021916908373ffffffffffffffffffffffffffffffffffffffff160217905550508080610a62906131ed565b915050610897565b50610a753382612337565b50565b600080600e60008473ffffffffffffffffffffffffffffffffffffffff1673ffffffffffffffffffffffffffffffffffffffff168152602001908152602001600020805480602002602001604051908101604052809291908181526020018280548015610b0457602002820191906000526020600020905b815481526020019060010190808311610af0575b505050505090506000805b8251811015610b7e57600754600c6000858481518110610b3257610b316130d7565b5b602002602001015181526020019081526020016000205442610b5491906130a3565b610b5e919061313d565b82610b699190613197565b91508080610b7690613217565b915050610b0f565b508092505050919050565b6000610c2b610b96611e10565b848460016000610ba4611e10565b73ffffffffffffffffffffffffffffffffffffffff1673ffffffffffffffffffffffffffffffffffffffff16815260200190815260200160002060008873ffffffffffffffffffffffffffffffffffffffff1673ffffffffffffffffffffffffffffffffffffffff16815260200190815260200160002054610c269190613197565b611e18565b6001905092915050565b60095481565b610c4c610c46611e10565b82612497565b50565b6000805b8251811015610edc573373ffffffffffffffffffffffffffffffffffffffff16600d6000858481518110610c8a57610c896130d7565b5b6020026020010151815260200190815260200160002060009054906101000a900473ffffffffffffffffffffffffffffffffffffffff1673ffffffffffffffffffffffffffffffffffffffff1614610d17576040517f08c379a0000000000000000000000000000000000000000000000000000000008152600401610d0e906132d2565b60405180910390fd5b600b60009054906101000a900473ffffffffffffffffffffffffffffffffffffffff1673ffffffffffffffffffffffffffffffffffffffff166323b872dd3061dead868581518110610d6c57610d6b6130d7565b5b60200260200101516040518463ffffffff1660e01b8152600401610d9293929190613106565b600060405180830381600087803b158015610dac57600080fd5b505af1158015610dc0573d6000803e3d6000fd5b50505050600754600c6000858481518110610dde57610ddd6130d7565b5b602002602001015181526020019081526020016000205442610e0091906130a3565b610e0a919061313d565b82610e159190613197565b9150610e3b33848381518110610e2e57610e2d6130d7565b5b6020026020010151612264565b600a60009054906101000a900473ffffffffffffffffffffffffffffffffffffffff16600d6000858481518110610e7557610e746130d7565b5b6020026020010151815260200190815260200160002060006101000a81548173ffffffffffffffffffffffffffffffffffffffff021916908373ffffffffffffffffffffffffffffffffffffffff1602179055508080610ed490613217565b915050610c53565b50610ee73382612337565b5050565b6000600a60009054906101000a900473ffffffffffffffffffffffffffffffffffffffff1673ffffffffffffffffffffffffffffffffffffffff16600d600084815260200190815260200160002060009054906101000a900473ffffffffffffffffffffffffffffffffffffffff1673ffffffffffffffffffffffffffffffffffffffff161415610fb1576040517f08c379a0000000000000000000000000000000000000000000000000000000008152600401610fa89061333e565b60405180910390fd5b6000600c60008481526020019081526020016000205442610fd291906130a3565b905060075481610fe2919061313d565b915050919050565b6060600e60008373ffffffffffffffffffffffffffffffffffffffff1673ffffffffffffffffffffffffffffffffffffffff16815260200190815260200160002080548060200260200160405190810160405280929190818152602001828054801561107557602002820191906000526020600020905b815481526020019060010190808311611061575b50505050509050919050565b3373ffffffffffffffffffffffffffffffffffffffff16600d600083815260200190815260200160002060009054906101000a900473ffffffffffffffffffffffffffffffffffffffff1673ffffffffffffffffffffffffffffffffffffffff1614611122576040517f08c379a0000000000000000000000000000000000000000000000000000000008152600401611119906133aa565b60405180910390fd5b6008544210611166576040517f08c379a000000000000000000000000000000000000000000000000000000000815260040161115d90613416565b60405180910390fd5b61119b33600754600c6000858152602001908152602001600020544261118c91906130a3565b611196919061313d565b612337565b42600c60008381526020019081526020016000208190555050565b60008060008373ffffffffffffffffffffffffffffffffffffffff1673ffffffffffffffffffffffffffffffffffffffff168152602001908152602001600020549050919050565b611206611e10565b73ffffffffffffffffffffffffffffffffffffffff16611224611307565b73ffffffffffffffffffffffffffffffffffffffff161461127a576040517f08c379a000000000000000000000000000000000000000000000000000000000815260040161127190613482565b60405180910390fd5b611284600061266e565b565b600061129983611294611e10565b611c54565b9050818110156112de576040517f08c379a00000000000000000000000000000000000000000000000000000000081526004016112d590613514565b60405180910390fd5b6112f2836112ea611e10565b848403611e18565b6112fc8383612497565b505050565b60065481565b6000600560009054906101000a900473ffffffffffffffffffffffffffffffffffffffff16905090565b60606004805461134090612f1e565b80601f016020809104026020016040519081016040528092919081815260200182805461136c90612f1e565b80156113b95780601f1061138e576101008083540402835291602001916113b9565b820191906000526020600020905b81548152906001019060200180831161139c57829003601f168201915b5050505050905090565b600080600160006113d2611e10565b73ffffffffffffffffffffffffffffffffffffffff1673ffffffffffffffffffffffffffffffffffffffff16815260200190815260200160002060008573ffffffffffffffffffffffffffffffffffffffff1673ffffffffffffffffffffffffffffffffffffffff1681526020019081526020016000205490508281101561148f576040517f08c379a0000000000000000000000000000000000000000000000000000000008152600401611486906135a6565b60405180910390fd5b6114a361149a611e10565b85858403611e18565b600191505092915050565b60006114c26114bb611e10565b8484611fe3565b6001905092915050565b6114d4611e10565b73ffffffffffffffffffffffffffffffffffffffff166114f2611307565b73ffffffffffffffffffffffffffffffffffffffff1614611548576040517f08c379a000000000000000000000000000000000000000000000000000000000815260040161153f90613482565b60405180910390fd5b80600b60006101000a81548173ffffffffffffffffffffffffffffffffffffffff021916908373ffffffffffffffffffffffffffffffffffffffff16021790555050565b60075481565b600b60009054906101000a900473ffffffffffffffffffffffffffffffffffffffff1681565b60085442106115fc576040517f08c379a00000000000000000000000000000000000000000000000000000000081526004016115f390613416565b60405180910390fd5b6000600e60003373ffffffffffffffffffffffffffffffffffffffff1673ffffffffffffffffffffffffffffffffffffffff16815260200190815260200160002080548060200260200160405190810160405280929190818152602001828054801561168757602002820191906000526020600020905b815481526020019060010190808311611673575b505050505090506000805b82518110156117ee573373ffffffffffffffffffffffffffffffffffffffff16600d60008584815181106116c9576116c86130d7565b5b6020026020010151815260200190815260200160002060009054906101000a900473ffffffffffffffffffffffffffffffffffffffff1673ffffffffffffffffffffffffffffffffffffffff1614611756576040517f08c379a000000000000000000000000000000000000000000000000000000000815260040161174d906133aa565b60405180910390fd5b600754600c60008584815181106117705761176f6130d7565b5b60200260200101518152602001908152602001600020544261179291906130a3565b61179c919061313d565b826117a79190613197565b915042600c60008584815181106117c1576117c06130d7565b5b602002602001015181526020019081526020016000208190555080806117e690613217565b915050611692565b506117f93382612337565b5050565b6006548151600e60003373ffffffffffffffffffffffffffffffffffffffff1673ffffffffffffffffffffffffffffffffffffffff1681526020019081526020016000208054905061184f9190613197565b1115611890576040517f08c379a000000000000000000000000000000000000000000000000000000000815260040161188790613638565b60405180910390fd5b60005b8151811015611c50573373ffffffffffffffffffffffffffffffffffffffff16600b60009054906101000a900473ffffffffffffffffffffffffffffffffffffffff1673ffffffffffffffffffffffffffffffffffffffff16636352211e848481518110611904576119036130d7565b5b60200260200101516040518263ffffffff1660e01b81526004016119289190612b15565b60206040518083038186803b15801561194057600080fd5b505afa158015611954573d6000803e3d6000fd5b505050506040513d601f19601f82011682018060405250810190611978919061366d565b73ffffffffffffffffffffffffffffffffffffffff16148015611a355750600a60009054906101000a900473ffffffffffffffffffffffffffffffffffffffff1673ffffffffffffffffffffffffffffffffffffffff16600d60008484815181106119e6576119e56130d7565b5b6020026020010151815260200190815260200160002060009054906101000a900473ffffffffffffffffffffffffffffffffffffffff1673ffffffffffffffffffffffffffffffffffffffff16145b611a74576040517f08c379a0000000000000000000000000000000000000000000000000000000008152600401611a6b906136e6565b60405180910390fd5b600b60009054906101000a900473ffffffffffffffffffffffffffffffffffffffff1673ffffffffffffffffffffffffffffffffffffffff166323b872dd3330858581518110611ac757611ac66130d7565b5b60200260200101516040518463ffffffff1660e01b8152600401611aed93929190613106565b600060405180830381600087803b158015611b0757600080fd5b505af1158015611b1b573d6000803e3d6000fd5b50505050600e60003373ffffffffffffffffffffffffffffffffffffffff1673ffffffffffffffffffffffffffffffffffffffff168152602001908152602001600020828281518110611b7157611b706130d7565b5b6020026020010151908060018154018082558091505060019003906000526020600020016000909190919091505542600c6000848481518110611bb757611bb66130d7565b5b602002602001015181526020019081526020016000208190555033600d6000848481518110611be957611be86130d7565b5b6020026020010151815260200190815260200160002060006101000a81548173ffffffffffffffffffffffffffffffffffffffff021916908373ffffffffffffffffffffffffffffffffffffffff1602179055508080611c4890613217565b915050611893565b5050565b6000600160008473ffffffffffffffffffffffffffffffffffffffff1673ffffffffffffffffffffffffffffffffffffffff16815260200190815260200160002060008373ffffffffffffffffffffffffffffffffffffffff1673ffffffffffffffffffffffffffffffffffffffff16815260200190815260200160002054905092915050565b6000600d600083815260200190815260200160002060009054906101000a900473ffffffffffffffffffffffffffffffffffffffff169050919050565b611d20611e10565b73ffffffffffffffffffffffffffffffffffffffff16611d3e611307565b73ffffffffffffffffffffffffffffffffffffffff1614611d94576040517f08c379a0000000000000000000000000000000000000000000000000000000008152600401611d8b90613482565b60405180910390fd5b600073ffffffffffffffffffffffffffffffffffffffff168173ffffffffffffffffffffffffffffffffffffffff161415611e04576040517f08c379a0000000000000000000000000000000000000000000000000000000008152600401611dfb90613778565b60405180910390fd5b611e0d8161266e565b50565b600033905090565b600073ffffffffffffffffffffffffffffffffffffffff168373ffffffffffffffffffffffffffffffffffffffff161415611e88576040517f08c379a0000000000000000000000000000000000000000000000000000000008152600401611e7f9061380a565b60405180910390fd5b600073ffffffffffffffffffffffffffffffffffffffff168273ffffffffffffffffffffffffffffffffffffffff161415611ef8576040517f08c379a0000000000000000000000000000000000000000000000000000000008152600401611eef9061389c565b60405180910390fd5b80600160008573ffffffffffffffffffffffffffffffffffffffff1673ffffffffffffffffffffffffffffffffffffffff16815260200190815260200160002060008473ffffffffffffffffffffffffffffffffffffffff1673ffffffffffffffffffffffffffffffffffffffff168152602001908152602001600020819055508173ffffffffffffffffffffffffffffffffffffffff168373ffffffffffffffffffffffffffffffffffffffff167f8c5be1e5ebec7d5bd14f71427d1e84f3dd0314c0f7b2291e5b200ac8c7c3b92583604051611fd69190612b15565b60405180910390a3505050565b600073ffffffffffffffffffffffffffffffffffffffff168373ffffffffffffffffffffffffffffffffffffffff161415612053576040517f08c379a000000000000000000000000000000000000000000000000000000000815260040161204a9061392e565b60405180910390fd5b600073ffffffffffffffffffffffffffffffffffffffff168273ffffffffffffffffffffffffffffffffffffffff1614156120c3576040517f08c379a00000000000000000000000000000000000000000000000000000000081526004016120ba906139c0565b60405180910390fd5b6120ce838383612734565b60008060008573ffffffffffffffffffffffffffffffffffffffff1673ffffffffffffffffffffffffffffffffffffffff16815260200190815260200160002054905081811015612154576040517f08c379a000000000000000000000000000000000000000000000000000000000815260040161214b90613a52565b60405180910390fd5b8181036000808673ffffffffffffffffffffffffffffffffffffffff1673ffffffffffffffffffffffffffffffffffffffff16815260200190815260200160002081905550816000808573ffffffffffffffffffffffffffffffffffffffff1673ffffffffffffffffffffffffffffffffffffffff16815260200190815260200160002060008282546121e79190613197565b925050819055508273ffffffffffffffffffffffffffffffffffffffff168473ffffffffffffffffffffffffffffffffffffffff167fddf252ad1be2c89b69c2b068fc378daa952ba7f163c4a11628f55a4df523b3ef8460405161224b9190612b15565b60405180910390a361225e848484612739565b50505050565b60005b600e60008473ffffffffffffffffffffffffffffffffffffffff1673ffffffffffffffffffffffffffffffffffffffff168152602001908152602001600020805490508110156123325781600e60008573ffffffffffffffffffffffffffffffffffffffff1673ffffffffffffffffffffffffffffffffffffffff1681526020019081526020016000208281548110612303576123026130d7565b5b9060005260206000200154141561231f5761231e838261273e565b5b808061232a90613217565b915050612267565b505050565b600073ffffffffffffffffffffffffffffffffffffffff168273ffffffffffffffffffffffffffffffffffffffff1614156123a7576040517f08c379a000000000000000000000000000000000000000000000000000000000815260040161239e90613abe565b60405180910390fd5b6123b360008383612734565b80600260008282546123c59190613197565b92505081905550806000808473ffffffffffffffffffffffffffffffffffffffff1673ffffffffffffffffffffffffffffffffffffffff168152602001908152602001600020600082825461241a9190613197565b925050819055508173ffffffffffffffffffffffffffffffffffffffff16600073ffffffffffffffffffffffffffffffffffffffff167fddf252ad1be2c89b69c2b068fc378daa952ba7f163c4a11628f55a4df523b3ef8360405161247f9190612b15565b60405180910390a361249360008383612739565b5050565b600073ffffffffffffffffffffffffffffffffffffffff168273ffffffffffffffffffffffffffffffffffffffff161415612507576040517f08c379a00000000000000000000000000000000000000000000000000000000081526004016124fe90613b50565b60405180910390fd5b61251382600083612734565b60008060008473ffffffffffffffffffffffffffffffffffffffff1673ffffffffffffffffffffffffffffffffffffffff16815260200190815260200160002054905081811015612599576040517f08c379a000000000000000000000000000000000000000000000000000000000815260040161259090613be2565b60405180910390fd5b8181036000808573ffffffffffffffffffffffffffffffffffffffff1673ffffffffffffffffffffffffffffffffffffffff1681526020019081526020016000208190555081600260008282546125f091906130a3565b92505081905550600073ffffffffffffffffffffffffffffffffffffffff168373ffffffffffffffffffffffffffffffffffffffff167fddf252ad1be2c89b69c2b068fc378daa952ba7f163c4a11628f55a4df523b3ef846040516126559190612b15565b60405180910390a361266983600084612739565b505050565b6000600560009054906101000a900473ffffffffffffffffffffffffffffffffffffffff16905081600560006101000a81548173ffffffffffffffffffffffffffffffffffffffff021916908373ffffffffffffffffffffffffffffffffffffffff1602179055508173ffffffffffffffffffffffffffffffffffffffff168173ffffffffffffffffffffffffffffffffffffffff167f8be0079c531659141344cd1fd0a4f28419497f9722a3daafe3b4186f6b6457e060405160405180910390a35050565b505050565b505050565b600e60008373ffffffffffffffffffffffffffffffffffffffff1673ffffffffffffffffffffffffffffffffffffffff16815260200190815260200160002080549050811061278c57612929565b60008190505b6001600e60008573ffffffffffffffffffffffffffffffffffffffff1673ffffffffffffffffffffffffffffffffffffffff168152602001908152602001600020805490506127e191906130a3565b8110156128c257600e60008473ffffffffffffffffffffffffffffffffffffffff1673ffffffffffffffffffffffffffffffffffffffff1681526020019081526020016000206001826128349190613197565b81548110612845576128446130d7565b5b9060005260206000200154600e60008573ffffffffffffffffffffffffffffffffffffffff1673ffffffffffffffffffffffffffffffffffffffff16815260200190815260200160002082815481106128a1576128a06130d7565b5b906000526020600020018190555080806128ba90613217565b915050612792565b50600e60008373ffffffffffffffffffffffffffffffffffffffff1673ffffffffffffffffffffffffffffffffffffffff16815260200190815260200160002080548061291257612911613c02565b5b600190038181906000526020600020016000905590555b5050565b600081519050919050565b600082825260208201905092915050565b60005b8381101561296757808201518184015260208101905061294c565b83811115612976576000848401525b50505050565b6000601f19601f8301169050919050565b60006129988261292d565b6129a28185612938565b93506129b2818560208601612949565b6129bb8161297c565b840191505092915050565b600060208201905081810360008301526129e0818461298d565b905092915050565b6000604051905090565b600080fd5b600080fd5b600073ffffffffffffffffffffffffffffffffffffffff82169050919050565b6000612a27826129fc565b9050919050565b612a3781612a1c565b8114612a4257600080fd5b50565b600081359050612a5481612a2e565b92915050565b6000819050919050565b612a6d81612a5a565b8114612a7857600080fd5b50565b600081359050612a8a81612a64565b92915050565b60008060408385031215612aa757612aa66129f2565b5b6000612ab585828601612a45565b9250506020612ac685828601612a7b565b9150509250929050565b60008115159050919050565b612ae581612ad0565b82525050565b6000602082019050612b006000830184612adc565b92915050565b612b0f81612a5a565b82525050565b6000602082019050612b2a6000830184612b06565b92915050565b600080600060608486031215612b4957612b486129f2565b5b6000612b5786828701612a45565b9350506020612b6886828701612a45565b9250506040612b7986828701612a7b565b9150509250925092565b600060ff82169050919050565b612b9981612b83565b82525050565b6000602082019050612bb46000830184612b90565b92915050565b600060208284031215612bd057612bcf6129f2565b5b6000612bde84828501612a45565b91505092915050565b600060208284031215612bfd57612bfc6129f2565b5b6000612c0b84828501612a7b565b91505092915050565b600080fd5b7f4e487b7100000000000000000000000000000000000000000000000000000000600052604160045260246000fd5b612c518261297c565b810181811067ffffffffffffffff82111715612c7057612c6f612c19565b5b80604052505050565b6000612c836129e8565b9050612c8f8282612c48565b919050565b600067ffffffffffffffff821115612caf57612cae612c19565b5b602082029050602081019050919050565b600080fd5b6000612cd8612cd384612c94565b612c79565b90508083825260208201905060208402830185811115612cfb57612cfa612cc0565b5b835b81811015612d245780612d108882612a7b565b845260208401935050602081019050612cfd565b5050509392505050565b600082601f830112612d4357612d42612c14565b5b8135612d53848260208601612cc5565b91505092915050565b600060208284031215612d7257612d716129f2565b5b600082013567ffffffffffffffff811115612d9057612d8f6129f7565b5b612d9c84828501612d2e565b91505092915050565b600081519050919050565b600082825260208201905092915050565b6000819050602082019050919050565b612dda81612a5a565b82525050565b6000612dec8383612dd1565b60208301905092915050565b6000602082019050919050565b6000612e1082612da5565b612e1a8185612db0565b9350612e2583612dc1565b8060005b83811015612e56578151612e3d8882612de0565b9750612e4883612df8565b925050600181019050612e29565b5085935050505092915050565b60006020820190508181036000830152612e7d8184612e05565b905092915050565b612e8e81612a1c565b82525050565b6000602082019050612ea96000830184612e85565b92915050565b60008060408385031215612ec657612ec56129f2565b5b6000612ed485828601612a45565b9250506020612ee585828601612a45565b9150509250929050565b7f4e487b7100000000000000000000000000000000000000000000000000000000600052602260045260246000fd5b60006002820490506001821680612f3657607f821691505b60208210811415612f4a57612f49612eef565b5b50919050565b7f45524332303a207472616e7366657220616d6f756e742065786365656473206160008201527f6c6c6f77616e6365000000000000000000000000000000000000000000000000602082015250565b6000612fac602883612938565b9150612fb782612f50565b604082019050919050565b60006020820190508181036000830152612fdb81612f9f565b9050919050565b7f4d7573742068617665206174206c65617374206f6e6520746f6b656e2073746160008201527f6b65642100000000000000000000000000000000000000000000000000000000602082015250565b600061303e602483612938565b915061304982612fe2565b604082019050919050565b6000602082019050818103600083015261306d81613031565b9050919050565b7f4e487b7100000000000000000000000000000000000000000000000000000000600052601160045260246000fd5b60006130ae82612a5a565b91506130b983612a5a565b9250828210156130cc576130cb613074565b5b828203905092915050565b7f4e487b7100000000000000000000000000000000000000000000000000000000600052603260045260246000fd5b600060608201905061311b6000830186612e85565b6131286020830185612e85565b6131356040830184612b06565b949350505050565b600061314882612a5a565b915061315383612a5a565b9250817fffffffffffffffffffffffffffffffffffffffffffffffffffffffffffffffff048311821515161561318c5761318b613074565b5b828202905092915050565b60006131a282612a5a565b91506131ad83612a5a565b9250827fffffffffffffffffffffffffffffffffffffffffffffffffffffffffffffffff038211156131e2576131e1613074565b5b828201905092915050565b60006131f882612a5a565b9150600082141561320c5761320b613074565b5b600182039050919050565b600061322282612a5a565b91507fffffffffffffffffffffffffffffffffffffffffffffffffffffffffffffffff82141561325557613254613074565b5b600182019050919050565b7f4d6573736167652053656e64657220776173206e6f74206f726967696e616c2060008201527f7374616b65722100000000000000000000000000000000000000000000000000602082015250565b60006132bc602783612938565b91506132c782613260565b604082019050919050565b600060208201905081810360008301526132eb816132af565b9050919050565b7f546f6b656e206973206e6f74207374616b656421000000000000000000000000600082015250565b6000613328601483612938565b9150613333826132f2565b602082019050919050565b600060208201905081810360008301526133578161331b565b9050919050565b7f546f6b656e206973206e6f7420636c61696d61626c6520627920796f75210000600082015250565b6000613394601e83612938565b915061339f8261335e565b602082019050919050565b600060208201905081810360008301526133c381613387565b9050919050565b7f436c61696d20706572696f64206973206f766572210000000000000000000000600082015250565b6000613400601583612938565b915061340b826133ca565b602082019050919050565b6000602082019050818103600083015261342f816133f3565b9050919050565b7f4f776e61626c653a2063616c6c6572206973206e6f7420746865206f776e6572600082015250565b600061346c602083612938565b915061347782613436565b602082019050919050565b6000602082019050818103600083015261349b8161345f565b9050919050565b7f45524332303a206275726e20616d6f756e74206578636565647320616c6c6f7760008201527f616e636500000000000000000000000000000000000000000000000000000000602082015250565b60006134fe602483612938565b9150613509826134a2565b604082019050919050565b6000602082019050818103600083015261352d816134f1565b9050919050565b7f45524332303a2064656372656173656420616c6c6f77616e63652062656c6f7760008201527f207a65726f000000000000000000000000000000000000000000000000000000602082015250565b6000613590602583612938565b915061359b82613534565b604082019050919050565b600060208201905081810360008301526135bf81613583565b9050919050565b7f4d7573742068617665206c657373207468616e20313020574f4c56455320737460008201527f616b656421000000000000000000000000000000000000000000000000000000602082015250565b6000613622602583612938565b915061362d826135c6565b604082019050919050565b6000602082019050818103600083015261365181613615565b9050919050565b60008151905061366781612a2e565b92915050565b600060208284031215613683576136826129f2565b5b600061369184828501613658565b91505092915050565b7f546f6b656e206d757374206265207374616b61626c6520627920796f75210000600082015250565b60006136d0601e83612938565b91506136db8261369a565b602082019050919050565b600060208201905081810360008301526136ff816136c3565b9050919050565b7f4f776e61626c653a206e6577206f776e657220697320746865207a65726f206160008201527f6464726573730000000000000000000000000000000000000000000000000000602082015250565b6000613762602683612938565b915061376d82613706565b604082019050919050565b6000602082019050818103600083015261379181613755565b9050919050565b7f45524332303a20617070726f76652066726f6d20746865207a65726f2061646460008201527f7265737300000000000000000000000000000000000000000000000000000000602082015250565b60006137f4602483612938565b91506137ff82613798565b604082019050919050565b60006020820190508181036000830152613823816137e7565b9050919050565b7f45524332303a20617070726f766520746f20746865207a65726f20616464726560008201527f7373000000000000000000000000000000000000000000000000000000000000602082015250565b6000613886602283612938565b91506138918261382a565b604082019050919050565b600060208201905081810360008301526138b581613879565b9050919050565b7f45524332303a207472616e736665722066726f6d20746865207a65726f20616460008201527f6472657373000000000000000000000000000000000000000000000000000000602082015250565b6000613918602583612938565b9150613923826138bc565b604082019050919050565b600060208201905081810360008301526139478161390b565b9050919050565b7f45524332303a207472616e7366657220746f20746865207a65726f206164647260008201527f6573730000000000000000000000000000000000000000000000000000000000602082015250565b60006139aa602383612938565b91506139b58261394e565b604082019050919050565b600060208201905081810360008301526139d98161399d565b9050919050565b7f45524332303a207472616e7366657220616d6f756e742065786365656473206260008201527f616c616e63650000000000000000000000000000000000000000000000000000602082015250565b6000613a3c602683612938565b9150613a47826139e0565b604082019050919050565b60006020820190508181036000830152613a6b81613a2f565b9050919050565b7f45524332303a206d696e7420746f20746865207a65726f206164647265737300600082015250565b6000613aa8601f83612938565b9150613ab382613a72565b602082019050919050565b60006020820190508181036000830152613ad781613a9b565b9050919050565b7f45524332303a206275726e2066726f6d20746865207a65726f2061646472657360008201527f7300000000000000000000000000000000000000000000000000000000000000602082015250565b6000613b3a602183612938565b9150613b4582613ade565b604082019050919050565b60006020820190508181036000830152613b6981613b2d565b9050919050565b7f45524332303a206275726e20616d6f756e7420657863656564732062616c616e60008201527f6365000000000000000000000000000000000000000000000000000000000000602082015250565b6000613bcc602283612938565b9150613bd782613b70565b604082019050919050565b60006020820190508181036000830152613bfb81613bbf565b9050919050565b7f4e487b7100000000000000000000000000000000000000000000000000000000600052603160045260246000fdfea2646970667358221220df08d2dd3b72e33adae4b8bd3af539a812abb3a2546c1dd6a96f0f41aecd11a064736f6c63430008090033",
  "immutableReferences": {},
  "source": "// SPDX-License-Identifier: MIT\n\npragma solidity ^0.8.0;\n\n/**\n * @dev Provides information about the current execution context, including the\n * sender of the transaction and its data. While these are generally available\n * via msg.sender and msg.data, they should not be accessed in such a direct\n * manner, since when dealing with meta-transactions the account sending and\n * paying for execution may not be the actual sender (as far as an application\n * is concerned).\n *\n * This contract is only required for intermediate, library-like contracts.\n */\nabstract contract Context {\n    function _msgSender() internal view virtual returns (address) {\n        return msg.sender;\n    }\n\n    function _msgData() internal view virtual returns (bytes calldata) {\n        return msg.data;\n    }\n}\n\n\n/**\n * @dev Contract module which provides a basic access control mechanism, where\n * there is an account (an owner) that can be granted exclusive access to\n * specific functions.\n *\n * By default, the owner account will be the one that deploys the contract. This\n * can later be changed with {transferOwnership}.\n *\n * This module is used through inheritance. It will make available the modifier\n * `onlyOwner`, which can be applied to your functions to restrict their use to\n * the owner.\n */\nabstract contract Ownable is Context {\n    address private _owner;\n\n    event OwnershipTransferred(address indexed previousOwner, address indexed newOwner);\n\n    /**\n     * @dev Initializes the contract setting the deployer as the initial owner.\n     */\n    constructor() {\n        _setOwner(_msgSender());\n    }\n\n    /**\n     * @dev Returns the address of the current owner.\n     */\n    function owner() public view virtual returns (address) {\n        return _owner;\n    }\n\n    /**\n     * @dev Throws if called by any account other than the owner.\n     */\n    modifier onlyOwner() {\n        require(owner() == _msgSender(), \"Ownable: caller is not the owner\");\n        _;\n    }\n\n    /**\n     * @dev Leaves the contract without owner. It will not be possible to call\n     * `onlyOwner` functions anymore. Can only be called by the current owner.\n     *\n     * NOTE: Renouncing ownership will leave the contract without an owner,\n     * thereby removing any functionality that is only available to the owner.\n     */\n    function renounceOwnership() public virtual onlyOwner {\n        _setOwner(address(0));\n    }\n\n    /**\n     * @dev Transfers ownership of the contract to a new account (`newOwner`).\n     * Can only be called by the current owner.\n     */\n    function transferOwnership(address newOwner) public virtual onlyOwner {\n        require(newOwner != address(0), \"Ownable: new owner is the zero address\");\n        _setOwner(newOwner);\n    }\n\n    function _setOwner(address newOwner) private {\n        address oldOwner = _owner;\n        _owner = newOwner;\n        emit OwnershipTransferred(oldOwner, newOwner);\n    }\n}\n\n/**\n * @dev Interface of the ERC20 standard as defined in the EIP.\n */\ninterface IERC20 {\n    /**\n     * @dev Returns the amount of tokens in existence.\n     */\n    function totalSupply() external view returns (uint256);\n\n    /**\n     * @dev Returns the amount of tokens owned by `account`.\n     */\n    function balanceOf(address account) external view returns (uint256);\n\n    /**\n     * @dev Moves `amount` tokens from the caller's account to `recipient`.\n     *\n     * Returns a boolean value indicating whether the operation succeeded.\n     *\n     * Emits a {Transfer} event.\n     */\n    function transfer(address recipient, uint256 amount) external returns (bool);\n\n    /**\n     * @dev Returns the remaining number of tokens that `spender` will be\n     * allowed to spend on behalf of `owner` through {transferFrom}. This is\n     * zero by default.\n     *\n     * This value changes when {approve} or {transferFrom} are called.\n     */\n    function allowance(address owner, address spender) external view returns (uint256);\n\n    /**\n     * @dev Sets `amount` as the allowance of `spender` over the caller's tokens.\n     *\n     * Returns a boolean value indicating whether the operation succeeded.\n     *\n     * IMPORTANT: Beware that changing an allowance with this method brings the risk\n     * that someone may use both the old and the new allowance by unfortunate\n     * transaction ordering. One possible solution to mitigate this race\n     * condition is to first reduce the spender's allowance to 0 and set the\n     * desired value afterwards:\n     * https://github.com/ethereum/EIPs/issues/20#issuecomment-263524729\n     *\n     * Emits an {Approval} event.\n     */\n    function approve(address spender, uint256 amount) external returns (bool);\n\n    /**\n     * @dev Moves `amount` tokens from `sender` to `recipient` using the\n     * allowance mechanism. `amount` is then deducted from the caller's\n     * allowance.\n     *\n     * Returns a boolean value indicating whether the operation succeeded.\n     *\n     * Emits a {Transfer} event.\n     */\n    function transferFrom(\n        address sender,\n        address recipient,\n        uint256 amount\n    ) external returns (bool);\n\n    /**\n     * @dev Emitted when `value` tokens are moved from one account (`from`) to\n     * another (`to`).\n     *\n     * Note that `value` may be zero.\n     */\n    event Transfer(address indexed from, address indexed to, uint256 value);\n\n    /**\n     * @dev Emitted when the allowance of a `spender` for an `owner` is set by\n     * a call to {approve}. `value` is the new allowance.\n     */\n    event Approval(address indexed owner, address indexed spender, uint256 value);\n}\n\n/**\n * @dev Interface for the optional metadata functions from the ERC20 standard.\n *\n * _Available since v4.1._\n */\ninterface IERC20Metadata is IERC20 {\n    /**\n     * @dev Returns the name of the token.\n     */\n    function name() external view returns (string memory);\n\n    /**\n     * @dev Returns the symbol of the token.\n     */\n    function symbol() external view returns (string memory);\n\n    /**\n     * @dev Returns the decimals places of the token.\n     */\n    function decimals() external view returns (uint8);\n}\n\n\n/**\n * @dev Implementation of the {IERC20} interface.\n *\n * This implementation is agnostic to the way tokens are created. This means\n * that a supply mechanism has to be added in a derived contract using {_mint}.\n * For a generic mechanism see {ERC20PresetMinterPauser}.\n *\n * TIP: For a detailed writeup see our guide\n * https://forum.zeppelin.solutions/t/how-to-implement-erc20-supply-mechanisms/226[How\n * to implement supply mechanisms].\n *\n * We have followed general OpenZeppelin Contracts guidelines: functions revert\n * instead returning `false` on failure. This behavior is nonetheless\n * conventional and does not conflict with the expectations of ERC20\n * applications.\n *\n * Additionally, an {Approval} event is emitted on calls to {transferFrom}.\n * This allows applications to reconstruct the allowance for all accounts just\n * by listening to said events. Other implementations of the EIP may not emit\n * these events, as it isn't required by the specification.\n *\n * Finally, the non-standard {decreaseAllowance} and {increaseAllowance}\n * functions have been added to mitigate the well-known issues around setting\n * allowances. See {IERC20-approve}.\n */\ncontract ERC20 is Context, IERC20, IERC20Metadata {\n    mapping(address => uint256) private _balances;\n\n    mapping(address => mapping(address => uint256)) private _allowances;\n\n    uint256 private _totalSupply = 100000;\n    string private _name;\n    string private _symbol;\n\n    /**\n     * @dev Sets the values for {name} and {symbol}.\n     *\n     * The default value of {decimals} is 18. To select a different value for\n     * {decimals} you should overload it.\n     *\n     * All two of these values are immutable: they can only be set once during\n     * construction.\n     */\n    constructor(string memory name_, string memory symbol_) {\n        _name = name_;\n        _symbol = symbol_;\n\n    }\n\n    /**\n     * @dev Returns the name of the token.\n     */\n    function name() public view virtual override returns (string memory) {\n        return _name;\n    }\n\n    /**\n     * @dev Returns the symbol of the token, usually a shorter version of the\n     * name.\n     */\n    function symbol() public view virtual override returns (string memory) {\n        return _symbol;\n    }\n\n    /**\n     * @dev Returns the number of decimals used to get its user representation.\n     * For example, if `decimals` equals `2`, a balance of `505` tokens should\n     * be displayed to a user as `5.05` (`505 / 10 ** 2`).\n     *\n     * Tokens usually opt for a value of 18, imitating the relationship between\n     * Ether and Wei. This is the value {ERC20} uses, unless this function is\n     * overridden;\n     *\n     * NOTE: This information is only used for _display_ purposes: it in\n     * no way affects any of the arithmetic of the contract, including\n     * {IERC20-balanceOf} and {IERC20-transfer}.\n     */\n    function decimals() public view virtual override returns (uint8) {\n        return 18;\n    }\n\n    /**\n     * @dev See {IERC20-totalSupply}.\n     */\n    function totalSupply() public view virtual override returns (uint256) {\n        return _totalSupply;\n    }\n\n    /**\n     * @dev See {IERC20-balanceOf}.\n     */\n    function balanceOf(address account) public view virtual override returns (uint256) {\n        return _balances[account];\n    }\n\n    /**\n     * @dev See {IERC20-transfer}.\n     *\n     * Requirements:\n     *\n     * - `recipient` cannot be the zero address.\n     * - the caller must have a balance of at least `amount`.\n     */\n    function transfer(address recipient, uint256 amount) public virtual override returns (bool) {\n        _transfer(_msgSender(), recipient, amount);\n        return true;\n    }\n\n    /**\n     * @dev See {IERC20-allowance}.\n     */\n    function allowance(address owner, address spender) public view virtual override returns (uint256) {\n        return _allowances[owner][spender];\n    }\n\n    /**\n     * @dev See {IERC20-approve}.\n     *\n     * Requirements:\n     *\n     * - `spender` cannot be the zero address.\n     */\n    function approve(address spender, uint256 amount) public virtual override returns (bool) {\n        _approve(_msgSender(), spender, amount);\n        return true;\n    }\n\n    /**\n     * @dev See {IERC20-transferFrom}.\n     *\n     * Emits an {Approval} event indicating the updated allowance. This is not\n     * required by the EIP. See the note at the beginning of {ERC20}.\n     *\n     * Requirements:\n     *\n     * - `sender` and `recipient` cannot be the zero address.\n     * - `sender` must have a balance of at least `amount`.\n     * - the caller must have allowance for ``sender``'s tokens of at least\n     * `amount`.\n     */\n    function transferFrom(\n        address sender,\n        address recipient,\n        uint256 amount\n    ) public virtual override returns (bool) {\n        _transfer(sender, recipient, amount);\n\n        uint256 currentAllowance = _allowances[sender][_msgSender()];\n        require(currentAllowance >= amount, \"ERC20: transfer amount exceeds allowance\");\n        unchecked {\n            _approve(sender, _msgSender(), currentAllowance - amount);\n        }\n\n        return true;\n    }\n\n    /**\n     * @dev Atomically increases the allowance granted to `spender` by the caller.\n     *\n     * This is an alternative to {approve} that can be used as a mitigation for\n     * problems described in {IERC20-approve}.\n     *\n     * Emits an {Approval} event indicating the updated allowance.\n     *\n     * Requirements:\n     *\n     * - `spender` cannot be the zero address.\n     */\n    function increaseAllowance(address spender, uint256 addedValue) public virtual returns (bool) {\n        _approve(_msgSender(), spender, _allowances[_msgSender()][spender] + addedValue);\n        return true;\n    }\n\n    /**\n     * @dev Atomically decreases the allowance granted to `spender` by the caller.\n     *\n     * This is an alternative to {approve} that can be used as a mitigation for\n     * problems described in {IERC20-approve}.\n     *\n     * Emits an {Approval} event indicating the updated allowance.\n     *\n     * Requirements:\n     *\n     * - `spender` cannot be the zero address.\n     * - `spender` must have allowance for the caller of at least\n     * `subtractedValue`.\n     */\n    function decreaseAllowance(address spender, uint256 subtractedValue) public virtual returns (bool) {\n        uint256 currentAllowance = _allowances[_msgSender()][spender];\n        require(currentAllowance >= subtractedValue, \"ERC20: decreased allowance below zero\");\n        unchecked {\n            _approve(_msgSender(), spender, currentAllowance - subtractedValue);\n        }\n\n        return true;\n    }\n\n    /**\n     * @dev Moves `amount` of tokens from `sender` to `recipient`.\n     *\n     * This internal function is equivalent to {transfer}, and can be used to\n     * e.g. implement automatic token fees, slashing mechanisms, etc.\n     *\n     * Emits a {Transfer} event.\n     *\n     * Requirements:\n     *\n     * - `sender` cannot be the zero address.\n     * - `recipient` cannot be the zero address.\n     * - `sender` must have a balance of at least `amount`.\n     */\n    function _transfer(\n        address sender,\n        address recipient,\n        uint256 amount\n    ) internal virtual {\n        require(sender != address(0), \"ERC20: transfer from the zero address\");\n        require(recipient != address(0), \"ERC20: transfer to the zero address\");\n\n        _beforeTokenTransfer(sender, recipient, amount);\n\n        uint256 senderBalance = _balances[sender];\n        require(senderBalance >= amount, \"ERC20: transfer amount exceeds balance\");\n        unchecked {\n            _balances[sender] = senderBalance - amount;\n        }\n        _balances[recipient] += amount;\n\n        emit Transfer(sender, recipient, amount);\n\n        _afterTokenTransfer(sender, recipient, amount);\n    }\n\n    /** @dev Creates `amount` tokens and assigns them to `account`, increasing\n     * the total supply.\n     *\n     * Emits a {Transfer} event with `from` set to the zero address.\n     *\n     * Requirements:\n     *\n     * - `account` cannot be the zero address.\n     */\n    function _mint(address account, uint256 amount) internal virtual {\n        require(account != address(0), \"ERC20: mint to the zero address\");\n\n        _beforeTokenTransfer(address(0), account, amount);\n\n        _totalSupply += amount;\n        _balances[account] += amount;\n        emit Transfer(address(0), account, amount);\n\n        _afterTokenTransfer(address(0), account, amount);\n    }\n\n    /**\n     * @dev Destroys `amount` tokens from `account`, reducing the\n     * total supply.\n     *\n     * Emits a {Transfer} event with `to` set to the zero address.\n     *\n     * Requirements:\n     *\n     * - `account` cannot be the zero address.\n     * - `account` must have at least `amount` tokens.\n     */\n    function _burn(address account, uint256 amount) internal virtual {\n        require(account != address(0), \"ERC20: burn from the zero address\");\n\n        _beforeTokenTransfer(account, address(0), amount);\n\n        uint256 accountBalance = _balances[account];\n        require(accountBalance >= amount, \"ERC20: burn amount exceeds balance\");\n        unchecked {\n            _balances[account] = accountBalance - amount;\n        }\n        _totalSupply -= amount;\n\n        emit Transfer(account, address(0), amount);\n\n        _afterTokenTransfer(account, address(0), amount);\n    }\n\n    /**\n     * @dev Sets `amount` as the allowance of `spender` over the `owner` s tokens.\n     *\n     * This internal function is equivalent to `approve`, and can be used to\n     * e.g. set automatic allowances for certain subsystems, etc.\n     *\n     * Emits an {Approval} event.\n     *\n     * Requirements:\n     *\n     * - `owner` cannot be the zero address.\n     * - `spender` cannot be the zero address.\n     */\n    function _approve(\n        address owner,\n        address spender,\n        uint256 amount\n    ) internal virtual {\n        require(owner != address(0), \"ERC20: approve from the zero address\");\n        require(spender != address(0), \"ERC20: approve to the zero address\");\n\n        _allowances[owner][spender] = amount;\n        emit Approval(owner, spender, amount);\n    }\n\n    /**\n     * @dev Hook that is called before any transfer of tokens. This includes\n     * minting and burning.\n     *\n     * Calling conditions:\n     *\n     * - when `from` and `to` are both non-zero, `amount` of ``from``'s tokens\n     * will be transferred to `to`.\n     * - when `from` is zero, `amount` tokens will be minted for `to`.\n     * - when `to` is zero, `amount` of ``from``'s tokens will be burned.\n     * - `from` and `to` are never both zero.\n     *\n     * To learn more about hooks, head to xref:ROOT:extending-contracts.adoc#using-hooks[Using Hooks].\n     */\n    function _beforeTokenTransfer(\n        address from,\n        address to,\n        uint256 amount\n    ) internal virtual {}\n\n    /**\n     * @dev Hook that is called after any transfer of tokens. This includes\n     * minting and burning.\n     *\n     * Calling conditions:\n     *\n     * - when `from` and `to` are both non-zero, `amount` of ``from``'s tokens\n     * has been transferred to `to`.\n     * - when `from` is zero, `amount` tokens have been minted for `to`.\n     * - when `to` is zero, `amount` of ``from``'s tokens have been burned.\n     * - `from` and `to` are never both zero.\n     *\n     * To learn more about hooks, head to xref:ROOT:extending-contracts.adoc#using-hooks[Using Hooks].\n     */\n    function _afterTokenTransfer(\n        address from,\n        address to,\n        uint256 amount\n    ) internal virtual {}\n}\n\n\n/**\n * @dev Extension of {ERC20} that allows token holders to destroy both their own\n * tokens and those that they have an allowance for, in a way that can be\n * recognized off-chain (via event analysis).\n */\nabstract contract ERC20Burnable is Context, ERC20 {\n    /**\n     * @dev Destroys `amount` tokens from the caller.\n     *\n     * See {ERC20-_burn}.\n     */\n    function burn(uint256 amount) public virtual {\n        _burn(_msgSender(), amount);\n    }\n\n    /**\n     * @dev Destroys `amount` tokens from `account`, deducting from the caller's\n     * allowance.\n     *\n     * See {ERC20-_burn} and {ERC20-allowance}.\n     *\n     * Requirements:\n     *\n     * - the caller must have allowance for ``accounts``'s tokens of at least\n     * `amount`.\n     */\n    function burnFrom(address account, uint256 amount) public virtual {\n        uint256 currentAllowance = allowance(account, _msgSender());\n        require(currentAllowance >= amount, \"ERC20: burn amount exceeds allowance\");\n        unchecked {\n            _approve(account, _msgSender(), currentAllowance - amount);\n        }\n        _burn(account, amount);\n    }\n}\n\n\n/**\n * @dev Interface of the ERC165 standard, as defined in the\n * https://eips.ethereum.org/EIPS/eip-165[EIP].\n *\n * Implementers can declare support of contract interfaces, which can then be\n * queried by others ({ERC165Checker}).\n *\n * For an implementation, see {ERC165}.\n */\ninterface IERC165 {\n    /**\n     * @dev Returns true if this contract implements the interface defined by\n     * `interfaceId`. See the corresponding\n     * https://eips.ethereum.org/EIPS/eip-165#how-interfaces-are-identified[EIP section]\n     * to learn more about how these ids are created.\n     *\n     * This function call must use less than 30 000 gas.\n     */\n    function supportsInterface(bytes4 interfaceId) external view returns (bool);\n}\n\n\n/**\n * @dev Required interface of an ERC721 compliant contract.\n */\ninterface IERC721 is IERC165 {\n    /**\n     * @dev Emitted when `tokenId` token is transferred from `from` to `to`.\n     */\n    event Transfer(address indexed from, address indexed to, uint256 indexed tokenId);\n\n    /**\n     * @dev Emitted when `owner` enables `approved` to manage the `tokenId` token.\n     */\n    event Approval(address indexed owner, address indexed approved, uint256 indexed tokenId);\n\n    /**\n     * @dev Emitted when `owner` enables or disables (`approved`) `operator` to manage all of its assets.\n     */\n    event ApprovalForAll(address indexed owner, address indexed operator, bool approved);\n\n    /**\n     * @dev Returns the number of tokens in ``owner``'s account.\n     */\n    function balanceOf(address owner) external view returns (uint256 balance);\n\n    /**\n     * @dev Returns the owner of the `tokenId` token.\n     *\n     * Requirements:\n     *\n     * - `tokenId` must exist.\n     */\n    function ownerOf(uint256 tokenId) external view returns (address owner);\n\n    /**\n     * @dev Safely transfers `tokenId` token from `from` to `to`, checking first that contract recipients\n     * are aware of the ERC721 protocol to prevent tokens from being forever locked.\n     *\n     * Requirements:\n     *\n     * - `from` cannot be the zero address.\n     * - `to` cannot be the zero address.\n     * - `tokenId` token must exist and be owned by `from`.\n     * - If the caller is not `from`, it must be have been allowed to move this token by either {approve} or {setApprovalForAll}.\n     * - If `to` refers to a smart contract, it must implement {IERC721Receiver-onERC721Received}, which is called upon a safe transfer.\n     *\n     * Emits a {Transfer} event.\n     */\n    function safeTransferFrom(\n        address from,\n        address to,\n        uint256 tokenId\n    ) external;\n\n    /**\n     * @dev Transfers `tokenId` token from `from` to `to`.\n     *\n     * WARNING: Usage of this method is discouraged, use {safeTransferFrom} whenever possible.\n     *\n     * Requirements:\n     *\n     * - `from` cannot be the zero address.\n     * - `to` cannot be the zero address.\n     * - `tokenId` token must be owned by `from`.\n     * - If the caller is not `from`, it must be approved to move this token by either {approve} or {setApprovalForAll}.\n     *\n     * Emits a {Transfer} event.\n     */\n    function transferFrom(\n        address from,\n        address to,\n        uint256 tokenId\n    ) external;\n\n    /**\n     * @dev Gives permission to `to` to transfer `tokenId` token to another account.\n     * The approval is cleared when the token is transferred.\n     *\n     * Only a single account can be approved at a time, so approving the zero address clears previous approvals.\n     *\n     * Requirements:\n     *\n     * - The caller must own the token or be an approved operator.\n     * - `tokenId` must exist.\n     *\n     * Emits an {Approval} event.\n     */\n    function approve(address to, uint256 tokenId) external;\n\n    /**\n     * @dev Returns the account approved for `tokenId` token.\n     *\n     * Requirements:\n     *\n     * - `tokenId` must exist.\n     */\n    function getApproved(uint256 tokenId) external view returns (address operator);\n\n    /**\n     * @dev Approve or remove `operator` as an operator for the caller.\n     * Operators can call {transferFrom} or {safeTransferFrom} for any token owned by the caller.\n     *\n     * Requirements:\n     *\n     * - The `operator` cannot be the caller.\n     *\n     * Emits an {ApprovalForAll} event.\n     */\n    function setApprovalForAll(address operator, bool _approved) external;\n\n    /**\n     * @dev Returns if the `operator` is allowed to manage all of the assets of `owner`.\n     *\n     * See {setApprovalForAll}\n     */\n    function isApprovedForAll(address owner, address operator) external view returns (bool);\n\n    /**\n     * @dev Safely transfers `tokenId` token from `from` to `to`.\n     *\n     * Requirements:\n     *\n     * - `from` cannot be the zero address.\n     * - `to` cannot be the zero address.\n     * - `tokenId` token must exist and be owned by `from`.\n     * - If the caller is not `from`, it must be approved to move this token by either {approve} or {setApprovalForAll}.\n     * - If `to` refers to a smart contract, it must implement {IERC721Receiver-onERC721Received}, which is called upon a safe transfer.\n     *\n     * Emits a {Transfer} event.\n     */\n    function safeTransferFrom(\n        address from,\n        address to,\n        uint256 tokenId,\n        bytes calldata data\n    ) external;\n}\n\n/**\n * @title ERC-721 Non-Fungible Token Standard, optional enumeration extension\n * @dev See https://eips.ethereum.org/EIPS/eip-721\n */\ninterface IERC721Enumerable is IERC721 {\n    /**\n     * @dev Returns the total amount of tokens stored by the contract.\n     */\n    function totalSupply() external view returns (uint256);\n\n    /**\n     * @dev Returns a token ID owned by `owner` at a given `index` of its token list.\n     * Use along with {balanceOf} to enumerate all of ``owner``'s tokens.\n     */\n    function tokenOfOwnerByIndex(address owner, uint256 index) external view returns (uint256 tokenId);\n\n    /**\n     * @dev Returns a token ID at a given `index` of all the tokens stored by the contract.\n     * Use along with {totalSupply} to enumerate all tokens.\n     */\n    function tokenByIndex(uint256 index) external view returns (uint256);\n}\n\n\n\n\n// CAUTION\n// This version of SafeMath should only be used with Solidity 0.8 or later,\n// because it relies on the compiler's built in overflow checks.\n\n/**\n * @dev Wrappers over Solidity's arithmetic operations.\n *\n * NOTE: `SafeMath` is no longer needed starting with Solidity 0.8. The compiler\n * now has built in overflow checking.\n */\nlibrary SafeMath {\n    /**\n     * @dev Returns the addition of two unsigned integers, with an overflow flag.\n     *\n     * _Available since v3.4._\n     */\n    function tryAdd(uint256 a, uint256 b) internal pure returns (bool, uint256) {\n        unchecked {\n            uint256 c = a + b;\n            if (c < a) return (false, 0);\n            return (true, c);\n        }\n    }\n\n    /**\n     * @dev Returns the substraction of two unsigned integers, with an overflow flag.\n     *\n     * _Available since v3.4._\n     */\n    function trySub(uint256 a, uint256 b) internal pure returns (bool, uint256) {\n        unchecked {\n            if (b > a) return (false, 0);\n            return (true, a - b);\n        }\n    }\n\n    /**\n     * @dev Returns the multiplication of two unsigned integers, with an overflow flag.\n     *\n     * _Available since v3.4._\n     */\n    function tryMul(uint256 a, uint256 b) internal pure returns (bool, uint256) {\n        unchecked {\n            // Gas optimization: this is cheaper than requiring 'a' not being zero, but the\n            // benefit is lost if 'b' is also tested.\n            // See: https://github.com/OpenZeppelin/openzeppelin-contracts/pull/522\n            if (a == 0) return (true, 0);\n            uint256 c = a * b;\n            if (c / a != b) return (false, 0);\n            return (true, c);\n        }\n    }\n\n    /**\n     * @dev Returns the division of two unsigned integers, with a division by zero flag.\n     *\n     * _Available since v3.4._\n     */\n    function tryDiv(uint256 a, uint256 b) internal pure returns (bool, uint256) {\n        unchecked {\n            if (b == 0) return (false, 0);\n            return (true, a / b);\n        }\n    }\n\n    /**\n     * @dev Returns the remainder of dividing two unsigned integers, with a division by zero flag.\n     *\n     * _Available since v3.4._\n     */\n    function tryMod(uint256 a, uint256 b) internal pure returns (bool, uint256) {\n        unchecked {\n            if (b == 0) return (false, 0);\n            return (true, a % b);\n        }\n    }\n\n    /**\n     * @dev Returns the addition of two unsigned integers, reverting on\n     * overflow.\n     *\n     * Counterpart to Solidity's `+` operator.\n     *\n     * Requirements:\n     *\n     * - Addition cannot overflow.\n     */\n    function add(uint256 a, uint256 b) internal pure returns (uint256) {\n        return a + b;\n    }\n\n    /**\n     * @dev Returns the subtraction of two unsigned integers, reverting on\n     * overflow (when the result is negative).\n     *\n     * Counterpart to Solidity's `-` operator.\n     *\n     * Requirements:\n     *\n     * - Subtraction cannot overflow.\n     */\n    function sub(uint256 a, uint256 b) internal pure returns (uint256) {\n        return a - b;\n    }\n\n    /**\n     * @dev Returns the multiplication of two unsigned integers, reverting on\n     * overflow.\n     *\n     * Counterpart to Solidity's `*` operator.\n     *\n     * Requirements:\n     *\n     * - Multiplication cannot overflow.\n     */\n    function mul(uint256 a, uint256 b) internal pure returns (uint256) {\n        return a * b;\n    }\n\n    /**\n     * @dev Returns the integer division of two unsigned integers, reverting on\n     * division by zero. The result is rounded towards zero.\n     *\n     * Counterpart to Solidity's `/` operator.\n     *\n     * Requirements:\n     *\n     * - The divisor cannot be zero.\n     */\n    function div(uint256 a, uint256 b) internal pure returns (uint256) {\n        return a / b;\n    }\n\n    /**\n     * @dev Returns the remainder of dividing two unsigned integers. (unsigned integer modulo),\n     * reverting when dividing by zero.\n     *\n     * Counterpart to Solidity's `%` operator. This function uses a `revert`\n     * opcode (which leaves remaining gas untouched) while Solidity uses an\n     * invalid opcode to revert (consuming all remaining gas).\n     *\n     * Requirements:\n     *\n     * - The divisor cannot be zero.\n     */\n    function mod(uint256 a, uint256 b) internal pure returns (uint256) {\n        return a % b;\n    }\n\n    /**\n     * @dev Returns the subtraction of two unsigned integers, reverting with custom message on\n     * overflow (when the result is negative).\n     *\n     * CAUTION: This function is deprecated because it requires allocating memory for the error\n     * message unnecessarily. For custom revert reasons use {trySub}.\n     *\n     * Counterpart to Solidity's `-` operator.\n     *\n     * Requirements:\n     *\n     * - Subtraction cannot overflow.\n     */\n    function sub(\n        uint256 a,\n        uint256 b,\n        string memory errorMessage\n    ) internal pure returns (uint256) {\n        unchecked {\n            require(b <= a, errorMessage);\n            return a - b;\n        }\n    }\n\n    /**\n     * @dev Returns the integer division of two unsigned integers, reverting with custom message on\n     * division by zero. The result is rounded towards zero.\n     *\n     * Counterpart to Solidity's `/` operator. Note: this function uses a\n     * `revert` opcode (which leaves remaining gas untouched) while Solidity\n     * uses an invalid opcode to revert (consuming all remaining gas).\n     *\n     * Requirements:\n     *\n     * - The divisor cannot be zero.\n     */\n    function div(\n        uint256 a,\n        uint256 b,\n        string memory errorMessage\n    ) internal pure returns (uint256) {\n        unchecked {\n            require(b > 0, errorMessage);\n            return a / b;\n        }\n    }\n\n    /**\n     * @dev Returns the remainder of dividing two unsigned integers. (unsigned integer modulo),\n     * reverting with custom message when dividing by zero.\n     *\n     * CAUTION: This function is deprecated because it requires allocating memory for the error\n     * message unnecessarily. For custom revert reasons use {tryMod}.\n     *\n     * Counterpart to Solidity's `%` operator. This function uses a `revert`\n     * opcode (which leaves remaining gas untouched) while Solidity uses an\n     * invalid opcode to revert (consuming all remaining gas).\n     *\n     * Requirements:\n     *\n     * - The divisor cannot be zero.\n     */\n    function mod(\n        uint256 a,\n        uint256 b,\n        string memory errorMessage\n    ) internal pure returns (uint256) {\n        unchecked {\n            require(b > 0, errorMessage);\n            return a % b;\n        }\n    }\n}\n\ncontract Lyacon is ERC20Burnable, Ownable {\n\n    using SafeMath for uint256;\n\n    uint256 public MAX_WALLET_STAKED = 10;\n    uint256 public EMISSIONS_RATE = 11574070000000;\n    uint256 public CLAIM_END_TIME = 1672574400;\n    \n    uint256 public TOTAL_BALANCE = 10000;\n    address nullAddress = 0x0000000000000000000000000000000000000000;\n\n    address public werewolvesAddress;\n    \n    //Mapping of WOLVES to timestamp\n    mapping(uint256 => uint256) internal tokenIdToTimeStamp;\n\n    //Mapping of WOLVES to staker\n    mapping(uint256 => address) internal tokenIdToStaker;\n\n    //Mapping of staker to WOLVES\n    mapping(address => uint256[]) internal stakerToTokenIds;\n\n    \n    constructor() ERC20(\"LYACON\", \"Lyacon\") {}\n\n    function setWerewolvesAddress(address _werewolvesAddress) public onlyOwner {\n        werewolvesAddress = _werewolvesAddress;\n        return;\n    }\n\n    function getTokensStaked(address staker)\n        public\n        view\n        returns (uint256[] memory)\n    {\n        return stakerToTokenIds[staker];\n    }\n\n    function remove(address staker, uint256 index) internal {\n        if (index >= stakerToTokenIds[staker].length) return;\n\n        for (uint256 i = index; i < stakerToTokenIds[staker].length - 1; i++) {\n            stakerToTokenIds[staker][i] = stakerToTokenIds[staker][i + 1];\n        }\n        stakerToTokenIds[staker].pop();\n    }\n\n    function removeTokenIdFromStaker(address staker, uint256 tokenId) internal {\n        for (uint256 i = 0; i < stakerToTokenIds[staker].length; i++) {\n            if (stakerToTokenIds[staker][i] == tokenId) {\n                //This is the tokenId to remove;\n                remove(staker, i);\n            }\n        }\n    }\n\n    function stakeByIds(uint256[] memory tokenIds) public {\n        require(\n            stakerToTokenIds[msg.sender].length + tokenIds.length <=\n                MAX_WALLET_STAKED,\n            \"Must have less than 10 WOLVES staked!\"\n        );\n\n        for (uint256 i = 0; i < tokenIds.length; i++) {\n            require(\n                IERC721(werewolvesAddress).ownerOf(tokenIds[i]) == msg.sender &&\n                    tokenIdToStaker[tokenIds[i]] == nullAddress,\n                \"Token must be stakable by you!\"\n            );\n\n            IERC721(werewolvesAddress).transferFrom(\n                msg.sender,\n                address(this),\n                tokenIds[i]\n            );\n\n            stakerToTokenIds[msg.sender].push(tokenIds[i]);\n\n            tokenIdToTimeStamp[tokenIds[i]] = block.timestamp;\n            tokenIdToStaker[tokenIds[i]] = msg.sender;\n        }\n    }\n\n    function unstakeAll() public {\n        require(\n            stakerToTokenIds[msg.sender].length > 0,\n            \"Must have at least one token staked!\"\n        );\n        uint256 totalRewards = 0;\n\n        for (uint256 i = stakerToTokenIds[msg.sender].length; i > 0; i--) {\n            uint256 tokenId = stakerToTokenIds[msg.sender][i - 1];\n\n            IERC721(werewolvesAddress).transferFrom(\n                address(this),\n                0x000000000000000000000000000000000000dEaD,\n                tokenId\n            );\n\n            totalRewards =\n                totalRewards +\n                ((block.timestamp - tokenIdToTimeStamp[tokenId]) *\n                    EMISSIONS_RATE);\n\n            removeTokenIdFromStaker(msg.sender, tokenId);\n\n            tokenIdToStaker[tokenId] = nullAddress;\n        }\n\n        _mint(msg.sender, totalRewards);\n    }\n\n    function unstakeByIds(uint256[] memory tokenIds) public {\n        uint256 totalRewards = 0;\n\n        for (uint256 i = 0; i < tokenIds.length; i++) {\n            require(\n                tokenIdToStaker[tokenIds[i]] == msg.sender,\n                \"Message Sender was not original staker!\"\n            );\n\n            IERC721(werewolvesAddress).transferFrom(\n                address(this),\n                0x000000000000000000000000000000000000dEaD,\n                tokenIds[i]\n            );\n\n            totalRewards =\n                totalRewards +\n                ((block.timestamp - tokenIdToTimeStamp[tokenIds[i]]) *\n                    EMISSIONS_RATE);\n\n            removeTokenIdFromStaker(msg.sender, tokenIds[i]);\n\n            tokenIdToStaker[tokenIds[i]] = nullAddress;\n        }\n\n        _mint(msg.sender, totalRewards);\n    }\n\n    function claimByTokenId(uint256 tokenId) public {\n        require(\n            tokenIdToStaker[tokenId] == msg.sender,\n            \"Token is not claimable by you!\"\n        );\n        require(block.timestamp < CLAIM_END_TIME, \"Claim period is over!\");\n\n        _mint(\n            msg.sender,\n            ((block.timestamp - tokenIdToTimeStamp[tokenId]) * EMISSIONS_RATE)\n        );\n\n        tokenIdToTimeStamp[tokenId] = block.timestamp;\n    }\n\n    function claimAll() public {\n        require(block.timestamp < CLAIM_END_TIME, \"Claim period is over!\");\n        uint256[] memory tokenIds = stakerToTokenIds[msg.sender];\n        uint256 totalRewards = 0;\n\n        for (uint256 i = 0; i < tokenIds.length; i++) {\n            require(\n                tokenIdToStaker[tokenIds[i]] == msg.sender,\n                \"Token is not claimable by you!\"\n            );\n\n            totalRewards =\n                totalRewards +\n                ((block.timestamp - tokenIdToTimeStamp[tokenIds[i]]) *\n                    EMISSIONS_RATE);\n\n            tokenIdToTimeStamp[tokenIds[i]] = block.timestamp;\n        }\n\n        _mint(msg.sender, totalRewards);\n    }\n\n    function getAllRewards(address staker) public view returns (uint256) {\n        uint256[] memory tokenIds = stakerToTokenIds[staker];\n        uint256 totalRewards = 0;\n\n        for (uint256 i = 0; i < tokenIds.length; i++) {\n            totalRewards =\n                totalRewards +\n                ((block.timestamp - tokenIdToTimeStamp[tokenIds[i]]) *\n                    EMISSIONS_RATE);\n        }\n\n        return totalRewards;\n    }\n\n    function getRewardsByTokenId(uint256 tokenId)\n        public\n        view\n        returns (uint256)\n    {\n        require(\n            tokenIdToStaker[tokenId] != nullAddress,\n            \"Token is not staked!\"\n        );\n\n        uint256 secondsStaked = block.timestamp - tokenIdToTimeStamp[tokenId];\n\n        return secondsStaked * EMISSIONS_RATE;\n    }\n\n    function getStaker(uint256 tokenId) public view returns (address) {\n        return tokenIdToStaker[tokenId];\n    }\n}\n",
  "sourcePath": "/var/www/html/warewolves/contracts/contracts/Laycon.sol",
  "compiler": {
    "name": "solc",
    "version": "0.8.9+commit.e5eed63a.Emscripten.clang"
  },
  "schemaVersion": "3.3.2",
  "updatedAt": "2021-12-17T06:19:06.334Z",
  "devdoc": {
    "kind": "dev",
    "methods": {
      "allowance(address,address)": {
        "details": "See {IERC20-allowance}."
      },
      "approve(address,uint256)": {
        "details": "See {IERC20-approve}. Requirements: - `spender` cannot be the zero address."
      },
      "balanceOf(address)": {
        "details": "See {IERC20-balanceOf}."
      },
      "burn(uint256)": {
        "details": "Destroys `amount` tokens from the caller. See {ERC20-_burn}."
      },
      "burnFrom(address,uint256)": {
        "details": "Destroys `amount` tokens from `account`, deducting from the caller's allowance. See {ERC20-_burn} and {ERC20-allowance}. Requirements: - the caller must have allowance for ``accounts``'s tokens of at least `amount`."
      },
      "decimals()": {
        "details": "Returns the number of decimals used to get its user representation. For example, if `decimals` equals `2`, a balance of `505` tokens should be displayed to a user as `5.05` (`505 / 10 ** 2`). Tokens usually opt for a value of 18, imitating the relationship between Ether and Wei. This is the value {ERC20} uses, unless this function is overridden; NOTE: This information is only used for _display_ purposes: it in no way affects any of the arithmetic of the contract, including {IERC20-balanceOf} and {IERC20-transfer}."
      },
      "decreaseAllowance(address,uint256)": {
        "details": "Atomically decreases the allowance granted to `spender` by the caller. This is an alternative to {approve} that can be used as a mitigation for problems described in {IERC20-approve}. Emits an {Approval} event indicating the updated allowance. Requirements: - `spender` cannot be the zero address. - `spender` must have allowance for the caller of at least `subtractedValue`."
      },
      "increaseAllowance(address,uint256)": {
        "details": "Atomically increases the allowance granted to `spender` by the caller. This is an alternative to {approve} that can be used as a mitigation for problems described in {IERC20-approve}. Emits an {Approval} event indicating the updated allowance. Requirements: - `spender` cannot be the zero address."
      },
      "name()": {
        "details": "Returns the name of the token."
      },
      "owner()": {
        "details": "Returns the address of the current owner."
      },
      "renounceOwnership()": {
        "details": "Leaves the contract without owner. It will not be possible to call `onlyOwner` functions anymore. Can only be called by the current owner. NOTE: Renouncing ownership will leave the contract without an owner, thereby removing any functionality that is only available to the owner."
      },
      "symbol()": {
        "details": "Returns the symbol of the token, usually a shorter version of the name."
      },
      "totalSupply()": {
        "details": "See {IERC20-totalSupply}."
      },
      "transfer(address,uint256)": {
        "details": "See {IERC20-transfer}. Requirements: - `recipient` cannot be the zero address. - the caller must have a balance of at least `amount`."
      },
      "transferFrom(address,address,uint256)": {
        "details": "See {IERC20-transferFrom}. Emits an {Approval} event indicating the updated allowance. This is not required by the EIP. See the note at the beginning of {ERC20}. Requirements: - `sender` and `recipient` cannot be the zero address. - `sender` must have a balance of at least `amount`. - the caller must have allowance for ``sender``'s tokens of at least `amount`."
      },
      "transferOwnership(address)": {
        "details": "Transfers ownership of the contract to a new account (`newOwner`). Can only be called by the current owner."
      }
    },
    "version": 1
  },
  "userdoc": {
    "kind": "user",
    "methods": {},
    "version": 1
  }
}